:10000000000001203D020000950200009702000060
:10001000990200009B0200009D0200000000000009
:10002000000000000000000000000000A504000027
:10003000A102000000000000C5040000A5020000AD
:10004000F92B0000AB020000AD020000AF0200007F
:10005000B1020000B3020000892C0000B7020000CA
:10006000B9020000BB020000BD020000BF02000098
:10007000C1020000C3020000C5020000C702000068
:10008000C9020000C5050000CD020000CF0200003B
:10009000D1020000D3020000D5020000D702000008
:1000A000D9020000DB020000DD020000DF020000D8
:1000B000E1020000E3020000A7020000A702000026
:1000C000E5020000E7020000E9020000EB02000088
:0C00D000ED020000EF020000F102000051
:1000DC00364937480A1A02D0072291438D463549D2
:1000EC0035480A1A06D00722914381F30988022267
:1000FC0082F3148831483249324A00F045F83248CC
:10010C003249334A00F040F832483349334A00F060
:10011C003BF833483349344A00F036F83348344915
:10012C00344A00F031F834483449354A00F02CF8A0
:10013C0034483549354A00F027F83548354900220E
:10014C0000F02DF834483549002200F028F83448E6
:10015C003449091A082903DB0022026004300160CB
:10016C00314A90471F482049884205D00268043024
:10017C0003B4904703BCF7E700208646EC4600200A
:10018C0000212A4A9047FEE7884207D0521A05D030
:10019C00037801300B700131013AF9D17047884274
:1001AC0002D002700130FAE7704700000000012015
:1001BC0000E000200000012000000120903500002C
:1001CC00000000200C000020F4020000F4020000EB
:1001DC00E4320000903500000000002000000020F8
:1001EC00E4320000E4320000E4320000E4320000AB
:1001FC00E4320000E4320000E4320000E43200009B
:10020C008F3500009C3500000C0000200C000020F5
:10021C000C000020F82C0020F82C0020F82C0020DA
:10022C00F82C0020F84C002061020000752E000014
:10023C000F484FF00701884385460E4880470E480B
:10024C00016841F470010160BFF34F8FBFF36F8FF2
:10025C00FFF73EBF09480A490A4A884207D0521A9A
:10026C0005D0037801300B700131013AF9D1704798
:10027C0000000120812F000088ED00E0E432000036
:10028C000000002000000020FEE7FEE7FEE7FEE78E
:10029C00FEE7FEE7FEE7FEE7FEE7FEE7FEE7FEE72A
:1002AC00FEE7FEE7FEE7FEE7FEE7FEE7FEE7FEE71A
:1002BC00FEE7FEE7FEE7FEE7FEE7FEE7FEE7FEE70A
:1002CC00FEE7FEE7FEE7FEE7FEE7FEE7FEE7FEE7FA
:1002DC00FEE7FEE7FEE7FEE7FEE7FEE7FEE7FEE7EA
:0802EC00FEE7FEE7FEE700BF9C
:1002F400044B1A5C012393404FF0A042C2F8083526
:10030400704700BFE432000008B50020FFF7F0FF9B
:100314000120FFF7EDFF0220FFF7EAFF0320BDE80D
:100324000840FFF7E5BF0000074A4FF0A041105C0A
:10033400D1F804350122824022EA03001340C1F8B7
:100344000805C1F80C357047E4320000C20708B54F
:1003540001460CD54FF0A0430322C3F84427C3F849
:100364004827C3F84C27C3F85027FFF7CDFF8B0766
:100374000AD54FF0A0430C22C3F83427C3F838271A
:10038400C3F83C27C3F8402708BD000038B543072D
:1003940004461CBF20F00704083400F065FF134B2B
:1003A4001A681AB9124A22F007021A601148016841
:1003B40040F6F7756218AA4215D8914213D21D6807
:1003C40002600D4401F020FD01F086FC0A4B1B88FD
:1003D400184204D022462946382001F0CDFF00F00F
:1003E400F7FF284638BD0025ECE700BF0C000020CD
:1003F400180000201010002002000020704700F1B7
:10040400080343604FF0FF32C3600361002382603E
:100414000360704700230361704743684B609A6828
:100424008A609A68516099600368086101330360C7
:1004340070470A68531C30B50AD103695A684A6088
:1004440091608B605960036808610133036030BDBB
:1004540000F108035C682568AA42EFD32346F9E754
:100464004168826803698A60826851605968884279
:1004740008BF5A60002202611A68013A1A601868BB
:10048400704700000548006880F3088862B661B6CA
:10049400BFF34F8FBFF36F8F00DF00BF000000007A
:1004A400064B19680868B0E8F04F80F30988BFF379
:1004B4006F8F4FF0000080F31188704728100020E0
:1004C400EFF30980BFF36F8F144B1A681EF0100FFF
:1004D40008BF20ED108A20E9F04F10604DF8043D6C
:1004E4004FF0400080F31188BFF34F8FBFF36F8F3D
:1004F40001F05CF84FF0000080F3118808BC196823
:100504000868B0E8F04F1EF0100F08BFB0EC108A76
:1005140080F30988BFF36F8F704700BF2810002055
:10052400402383F31188FEE74FF0807300E90A004B
:10053400054B40F80C3C6FF0020340F8202C40F8C7
:10054400243C4438704700BF250500000F4C08B513
:10055400E02384F8223000F06DF80D4B00221A607D
:10056400D4F888300B4A43F47003C4F888305368D5
:1005740043F040435360236943F010032361FFF7C2
:1005840081FF402383F31188FEE700BF00ED00E004
:100594001410002030EF00E0402383F31188024A56
:1005A400136801331360704714100020034A136862
:1005B400013B13600BB983F31188704714100020BA
:1005C40073B5194B00221A601B680193019BEFF36A
:1005D4001186402383F31188144BD3F80445C3F8E0
:1005E400002103F580731B680093009B00F044FE18
:1005F400241A24F07F44012C04D901F0F7F80228CE
:1006040018BF0124002514F1FF3409D225B1084B89
:100614004FF080525A6040BF86F3118802B070BD1B
:1006240000F03EFE0543EEE740110140001001409A
:1006340000ED00E008B5002002F060FA0A4B0B4917
:100644001F22C3F808250122C3F804230A601A6094
:100654000222C3F84423064BE02283F811234FF40B
:1006640000321A6008BD00BF0010014008100140AC
:1006740000E100E07FB5064672B6264CD4F8045576
:1006840001F094F82346002841D0234CB44228BFFB
:1006940034462A1922F07F420121C3F80813C3F813
:1006A40040251E4A002111601168019101994FF4FF
:1006B4008031C3F80413BFF34F8F3CB1184920BFF6
:1006C400D1F80061D1F804013043F8D04FF48031FF
:1006D400C3F808130021116012680392039A114AA7
:1006E400116012680292029A0122C3F80423D3F81B
:1006F40004355B1B23F07F40A042094B4FF40032CA
:1007040028BF2046C3F8802108B100F0BBFD62B6C3
:1007140004B070BD00100140FDFFFF004011014016
:1007240000E100E00011014010B50446FFF734FF7A
:10073400A46BFFF73BFFB4FA84F0400910BD70B519
:100744001546026C866B044642B905689DB940683B
:1007540001F05CF865600136A66370BD6DB9806810
:1007640002F03EFDA368226C13446268A3609342C6
:1007740001D32368A3600020EDE7C06802F030FDD8
:10078400236CE26821685B421A448A42E2603EBFFD
:1007940062689B18E360022DEDD10EB1013EEAE7D9
:1007A4003046D8E7034610B41A6C084662B1D968DB
:1007B4005C681144A142D96024BF1968D960D96822
:1007C4005DF8044B02F00CBD5DF8044B704770B546
:1007D4000446FFF7E1FE94F8455004F124066DB297
:1007E400002D14DCFF2384F84530FFF7DFFEFFF70C
:1007F400D3FE94F8445004F110066DB2002D12DCBF
:10080400FF2384F84430BDE87040FFF7CFBE636A2D
:10081400002BE7D0304600F043FF08B100F0BAFFE8
:10082400013D6DB2DCE72369002BE9D0304600F0CE
:1008340037FF08B100F0AEFF013D6DB2DEE7000006
:1008440038B504460D46FFF7A7FE206CE36B22681B
:10085400A2604343D1181B1A13446160E360002172
:10086400FF23A16384F8443084F845309DB923699B
:100874006BB104F1100000F013FF40B10A4B4FF0CC
:1008840080525A6040BFBFF34F8FBFF36F8FFFF7A3
:100894008DFE012038BD04F11000FFF7B0FD04F116
:1008A4002400FFF7ACFDF2E700ED00E02DE9F04194
:1008B40005464843503088461646FFF767FD334FD8
:1008C400044600283ED0B8F1000F24D12060012155
:1008D400E563C4F840802046FFF7B2FF2C4B84F850
:1008E4004C601988204601F00EFA01F08DFA01F0EF
:1008F400F3F93B88184217D0204601F0FFF93B88F2
:10090400184211D094F84C30042B0DD8DFE803F0D2
:1009140007140C0F170000F150030360D7E72A46B1
:100924002146112001F028FD2046BDE8F081214632
:10093400122001F0EFFCF7E721461320F9E72146E6
:100944001720F6E701F060FA01F0C6F93B88184277
:10095400EAD0042EE8D801A353F826F07509000064
:10096400830900002D0900007D09000089090000A9
:100974002A4600214120D5E700214220D9E7002161
:100984004320D6E700214720D3E700BF0200002020
:10099400000000202DE9F04F85B07D4EDFF8F4A172
:1009A4000192044688461D46002B0CBF4FF05609A1
:1009B4004FF0C2090027FFF7EFFDA26BE36B9A42E9
:1009C40001D3022D45D101F01FFA714E01F084F9D3
:1009D4003388184218D0204601F090F93388184221
:1009E40012D094F84C30042B0ED8DFE803F0032D1A
:1009F40028282D00A26B002D02F1010221460CBF14
:100A04005020C02001F0B8FC2A4641462046FFF79A
:100A140096FE636A1BB104F1240000F041FE40B16C
:100A24005C4B4FF080525A6040BFBFF34F8FBFF30F
:100A34006F8FFFF7BBFD012005B0BDE8F08FA26BFF
:100A4400214601325120DDE72146522001F062FCAB
:100A5400DAE7019BCBB9FFF7A9FD01F0D5F94C4EBC
:100A640001F03AF93388184200F08680204601F0FC
:100A740045F9338818427FD094F84C30042B7BD846
:100A8400DFE803F072807C7C800017B902A800F0D4
:100A94004DFEFFF78BFD00F0E7FBFFF77DFD94F8BB
:100AA4004430FF2B04BF002384F8443094F84530CD
:100AB400FF2B04BF002384F84530FFF777FD01A91D
:100AC40002A800F03FFE002848D1FFF765FDD4F8E6
:100AD40038B0E76BFFF76AFDBB4539D101F094F9F3
:100AE40001F0FAF83388184213D0204601F006F9D1
:100AF400338818420DD094F84C30042B09D8DFE821
:100B040003F003221E1E2200A26B2146484601F078
:100B140033FC019904F1100000F08CFD2046FFF72E
:100B240056FE00F055FC40B94FF08053CAF804302B
:100B340040BFBFF34F8FBFF36F8F01273BE7A26B1B
:100B440021465720E3E72146582001F0E3FBE0E784
:100B54002046FFF73CFE00F03BFCEEE72046FFF7A3
:100B640036FE00F035FC78E7002DA26B21460CBF61
:100B74005320C12001F000FC00205DE7A26B214658
:100B84005420F7E72146552001F0C4FBF4E700BFE9
:100B94000200002000ED00E02DE9F04705468946FB
:100BA40090461F46EFF31186402383F31188826B2E
:100BB400C36BDFF8BCA09A4201D3022F3ED1284672
:100BC40095F8454001F09AF8BAF80030184264B23A
:100BD40014D095F84C303BB1023B012B0ED8AA6BD4
:100BE400294601325A2007E0AA6B002F02F10102C4
:100BF40029460CBF5920C32001F0BEFB3A464946A2
:100C04002846FFF79CFD631C13D16B6A0BB90120C6
:100C14000BE005F1240000F043FD0028F7D0B8F103
:100C2400000FF4D00120C8F8000086F31188BDE855
:100C3400F087013464B285F84540E8E701F05EF8D6
:100C4400BAF800301840F0D095F84C4034B1A01EEA
:100C540001280BD8AA6B29465D2005E0002FAA6B5A
:100C640029460CBF5C20C42001F086FB0020DCE791
:100C7400020000202DE9F04385B07A4EDFF8E891B8
:100C84000192044688460027FFF786FCA56B002DD9
:100C940045D041462046FFF785FD724E01F0B4F879
:100CA40001F01AF83388184215D0204601F026F8CE
:100CB400338818420FD094F84C30042B0BD8DFE85B
:100CC40003F0032822222800A36B019A013B21464A
:100CD400602001F085FB013DA56323696BB104F13C
:100CE400100000F0DDFC40B15F4B4FF080525A60C1
:100CF40040BFBFF34F8FBFF36F8FFFF757FC012047
:100D040005B0BDE8F083A36B019A013B2146612045
:100D1400DFE7019A2146622001F02EFBDBE7019B0D
:100D2400D3B9FFF743FC01F06FF84E4D00F0D4FF48
:100D34002B88184200F08980204600F0DFFF2B88C2
:100D4400184200F0828094F84C30042B7DD8DFE800
:100D540003F076837E7E830017B902A800F0E6FCD8
:100D6400FFF724FC00F080FAFFF716FC94F84430F7
:100D7400FF2B04BF002384F8443094F84530FF2B44
:100D840004BF002384F84530FFF710FC01A902A832
:100D940000F0D8FC002847D12046FFF7C5FC002806
:100DA4003CD001F031F800F097FF3388184214D09A
:100DB400204600F0A3FF338818420ED094F84C303C
:100DC400042B0AD8DFE803F003241F1F2400A36BBD
:100DD400019A2146662001F003FB019904F12400E5
:100DE40000F028FC2046FFF7F2FC00F0F1FA40B9CD
:100DF4004FF08053C9F8043040BFBFF34F8FBFF3A7
:100E04006F8F012740E7A36B019A21466720E2E731
:100E1400019A2146682001F0AFFADEE72046FFF789
:100E2400D6FC00F0D5FAECE72046FFF7D0FC00F042
:100E3400CFFA2046FFF778FC0028E2D073E7A36BD3
:100E4400019A2146632001F0CBFA002058E7A36BF6
:100E5400019A21466420F6E7019A2146652001F0B3
:100E64008BFAF2E70200002000ED00E0806C70478E
:100E74008164704770B50C460C490546086810B18A
:100E84008B688BB9012041F8304001EBC001284642
:100E94004D60214601F010F82B4622460321012023
:100EA400BDE8704001F0E1B970BD00BF181000202A
:100EB40070B504460D461646FFF76EFB94F84430B1
:100EC400FF2B04BF002384F8443094F84530FF2BF3
:100ED40004BF002384F84530FFF768FBA36B2BB9EC
:100EE4003246294604F1240000F0B4FB2046BDE854
:100EF4007040FFF76CBC0000094B0A4A1B6812687B
:100F0400D06A58B9084A1268012A08D8012B06D8B1
:100F1400064B1868064B1B68C01A704700207047C0
:100F2400841000202810002034100020B410002069
:100F3400FC100020064A13681968064B19B94FF0D3
:100F4400FF321A6070471268D268D2685268F8E7B4
:100F54002C100020B4100020F8B51B4B1B4E1D684C
:100F64000446306804300F46FFF77AFA334640B936
:100F74003168174EC96A32680120884022EA0002AB
:100F84003260621C07D137B1196812480431BDE8D8
:100F9400F840FFF742BA2C441A68A542546007D9B6
:100FA4000D4A10681968BDE8F8400431FFF741BAEA
:100FB4000A4A106819680431FFF73BFA084B1A68AB
:100FC400944238BF1C60F8BDFC100020281000209B
:100FD40084100020D4100020301000202C10002099
:100FE400B41000202DE9F84F4FEA820B8146584691
:100FF4000D469A46FFF7CAF90746002800F0D1804B
:101004005020FFF7C3F90446002800F0C7805A4671
:101014000763A521384602F00DF9236BABF1040BED
:101024009B4404F134026B1E2BF0070B03359046EE
:10103400597802F8011B13F8011F09B19D42F7D139
:101044000A9D022D28BF02250026271DE56225647E
:10105400384684F837606664FFF7DCF9C5F10305A8
:1010640004F11800FFF7D6F9A6642461A56164624F
:1010740084F84C60524649465846FFF755FA0B9B94
:10108400206003B11C60FFF787FA4D4B4D4E1A6880
:10109400DFF86C9101321A603268002A40F08480D3
:1010A40034601B68012B1FD14748DFF858A1474D16
:1010B400FFF7A5F94648FFF7A2F94648FFF79FF95D
:1010C4005046FFF79CF92846FFF799F94248FFF785
:1010D40096F94248FFF793F94148FFF790F9414BDD
:1010E400C3F800A0404B1D60404A414D13680133D2
:1010F400A36341462046136000F0DEFEE16A204609
:1011040000F024FF424623460321012001F0ADF8FC
:10111400384B2046198800F0E4FD00F075FE00F01D
:10112400DBFD2B8818420AD0204600F0D5FD2B8821
:10113400184204D0E26A2146102001F01DF920462D
:1011440000F0CAFD2B88184203D02146302001F05C
:10115400E1F82949E26A0868012505FA02F3034324
:101164000B60194B142000FB02303946FFF755F988
:10117400FFF71CFAD9F800306BB13368DA6AE36A16
:101184009A4208D21D4B4FF080525A6040BFBFF3C1
:101194004F8FBFF36F8F2846BDE8F88F3846FFF7AF
:1011A4002DF94FF0FF35F6E7D9F80030002B9BD12D
:1011B4003368DA6AE36A9A4298BF346094E700BFFE
:1011C4007010002028100020341000209C100020F3
:1011D400481000205C100020BC100020E810002003
:1011E400D41000202C10002030100020801000208B
:1011F40002000020000000208410002000ED00E028
:10120400D01000208810002013B5114B0193002446
:10121400009423463C220F490F48FFF7E3FE0128C0
:1012240013D100F099FB01280FD1402383F31188D7
:101234000A4B4FF0FF321A60094B1860094B1C60CF
:1012440002B0BDE81040FFF781B902B010BD00BF85
:10125400B0100020E832000019150000B41000207E
:10126400D0100020FC100020024A136801331360E0
:10127400704700BF7C100020014B1868704700BF06
:10128400FC100020044B1A6802441A60034A1368D5
:1012940003441360704700BFFC100020702B002033
:1012A4002DE9F84F3D4C2368012B02D03C4B1B68C1
:1012B4001BB93C4A13680133136023682BB93A4BBA
:1012C40019683120013101F025F8236823BB364B1E
:1012D4001E6801361E605EB9344A354B11681868C1
:1012E4001060344A1960136801331360FFF722FE5B
:1012F400314F3B689E424FF0000512D3DFF8AC80BB
:10130400DFF8C4B0DFF8C490D8F800301B6883B9A4
:101314004FF0FF333B6004E0214A1368013313604C
:101324000025264B1B68002B18BF01252846BDE865
:10133400F88FD8F80030DB68DC6863689E42E9D334
:1013440004F1040A5046FFF78BF8A36A1BB104F1B9
:101354001800FFF785F8204600F0BEFCBBF800300B
:10136400184203D02146302000F0D4FFE26AD9F8B5
:101374000010012393400B43C9F80030104B142094
:1013840000FB02305146FFF748F80E4BE26A1B6837
:10139400DB6A9A4228BF0125B6E700BF7C10002013
:1013A40078100020702B0020FC1000202C1000204E
:1013B40030100020B8100020B410002000110020CC
:1013C4003410002028100020020000208410002087
:1013D4002DE9F843FFF7E0F8304B1A68013A1A6038
:1013E4001C682CB10024FFF7E1F82046BDE8F8831F
:1013F4002B4B1B68002BF5D02A4DDFF8C4902A4EE6
:101404002B68EBB90CB1FFF795FD284D2C6844B15E
:10141400274E0127FFF744FF00B13760013CF9D1A3
:101424002C60234B1B68002BDCD0224B4FF08052E6
:101434005A6040BFBFF34F8FBFF36F8F0124D2E7D1
:10144400EB68DC6804F1180004F10408FFF708F8FD
:101454004046FFF705F8204600F03EFCB9F800309E
:10146400184203D02146302000F054FFE26A31686C
:10147400012707FA02F30B4333600F4B142000FBE0
:1014840002304146FEF7C9FF0C4BE26A1B68DB6A77
:101494009A4224BF064B1F60B2E700BF7C100020B5
:1014A40070100020BC100020841000207810002050
:1014B4000011002000ED00E034100020281000206E
:1014C4000200002010B5044648B9104B4FF080527A
:1014D4005A6040BFBFF34F8FBFF36F8F10BDFFF74C
:1014E400C3FE00F091FC00F0F7FB094B1B88184287
:1014F40003D021467A2000F00DFF00212046FFF79B
:101504002BFDFFF765FF0028DFD010BD00ED00E0E4
:1015140002000020F8B5204C204E214F236823BB45
:10152400204B1B68012B08D91F4B4FF080525A6087
:1015340040BFBFF34F8FBFF36F8FFFF7DDFC012870
:10154400EBD9FFF791FEFFF7D7FC0128054609D92F
:1015540001463A2000F0DEFE2846FFF78BF83B20D8
:1015640000F0AAFEFFF734FFD7E7FFF715F8F3689A
:10157400DD68281DFEF774FF3B68013B3B60236870
:10158400013B2360FFF712F8286BFEF737FF28466C
:10159400FEF734FFC2E700BF74100020E8100020FB
:1015A400701000203410002000ED00E038B51B4B13
:1015B4001A681B4B12B101221A6038BD1A60194B0C
:1015C40019491B68B3FA83F31420C3F11F0300FB0A
:1015D40003F28C18083265686D6865600A449542A8
:1015E40004BF6A68626000FB0313104C5B68DB682D
:1015F400236000F009FC00F06FFB0D4B1B881842C0
:101604000BD0206800F002FC38B121682368372031
:10161400DA6ABDE8384000F0AFBE38BD7C10002067
:101624000011002084100020341000202810002015
:101634000200002010B5064B0C4619681831FEF75D
:10164400F8FE20460121BDE81040FFF785BC00BF2D
:101654002810002038B50F4B0C4619681546183170
:10166400FEF7DBFE002D18BF4FF0FF3400F0CCFB7B
:1016740000F032FB084B1B88184205D0074B196851
:101684007920214400F046FE29462046BDE8384032
:10169400FFF762BC2810002002000020FC1000208C
:1016A40038B5C368DC6804F118052846FEF7D8FE8F
:1016B400174B1B684BBB251D2846FEF7D1FE204661
:1016C40000F00AFB134B1B88184203D0214630203C
:1016D40000F020FE1049E26A0868012393400343A6
:1016E4000B600E4B1420294600FB0230FEF795FEDA
:1016F4000B4BE26A1B68DB6A9A4285BF094B0120E7
:1017040000201860FFF716FC38BD29460648EDE7AF
:101714007C100020020000208410002034100020DF
:101724002810002000110020BC100020034B1B686F
:101734000360034B1B684360704700BFB810002070
:10174400FC10002070B50C460546FEF725FF0F4B34
:101754001A682368591C0FD00D482E680068696800
:10176400864201D08A420ED2521A9A4209D29B1A58
:1017740023602846FFF7DAFF0024FEF717FF204610
:1017840070BD002323600124F7E700BFFC10002094
:10179400B8100020014B01221A607047001100208C
:1017A40000B1C06B704700B1C1637047084B186843
:1017B40060B9084B1B6853B9074B1868074B1B6883
:1017C400013B984214BF012002207047002070475B
:1017D400BC10002000110020D41000207010002044
:1017E400014B1868704700BF28100020054B1B6888
:1017F40033B1054B1B68002B0CBF0220002070473F
:1018040001207047D01000207C1000202DE9F04109
:10181400044610B90020BDE8F081436CC16A026C33
:10182400013B91424364F5D0002BF3D100F104084D
:101834004046FEF715FE204F204E50B9E06A1421B1
:1018440041437B582BB933680122824023EA0203C7
:10185400336000F0D9FA1A4D00F03EFA2B88184292
:101864000AD0204600F038FA2B88184204D0226CA3
:101874002146062000F080FD236CE362C3F10303DC
:10188400A361204600F028FA2B88184203D0214691
:10189400302000F03FFDE26A3168012404FA02F3CB
:1018A40014200B4300FB027041463360FEF7B5FD84
:1018B4002046BDE8F08100BF3410002084100020D1
:1018C40002000020F8B50F4CFEF766FE2568ADB99E
:1018D4000D4F0E4E3846FEF792FD3046FEF78FFD53
:1018E4000B4B1F600B4B2A46102120201E60FEF775
:1018F400DDFF206010B10849FFF7BCFABDE8F840ED
:10190400FEF754BE381100200C11002020110020D5
:101914000411002008110020ED320000914208B5A6
:10192400416000610AD8D21A83699A420DD2084BE9
:10193400011D1868FEF77DFD002008BD9A4201D202
:10194400994202D2011D034BF3E7012008BD00BFF9
:10195400081100200411002007B5FFF7B3FF084B5E
:10196400186848B1074B01930223009350220023C7
:1019740005490648FFF736FB03B05DF804FB00BFDA
:10198400381100203C110020F2320000751A0000CA
:101994002DE9F04180462C200F4616461D46FEF7E1
:1019A400F5FC044658B1FFF78DFF069BC4F8008090
:1019B400A761E66125626362201DFEF72BFD2046C8
:1019C400BDE8F0817FB50F4C0546206816461A46DF
:1019D40080B105298DE8420002950DDCFFF706FF72
:1019E4000023022808BF089A206818BF1A466946CF
:1019F400FEF7D0FF04B070BD00236946FFF7CCF8B2
:101A0400F8E700BF381100202DE9F341164D4FF0DF
:101A140000082B681A6832B9144A116829601360E7
:101A240002B0BDE8F081DB68DC681E68271D38461B
:101A3400FEF716FD636A20469847E369012BE8D157
:101A4400A36933449E4206D2636024613946286800
:101A5400FEF7EFFCDDE70023CDF80080324619469F
:101A64002046FFF7AFFFD4E704110020081100203F
:101A74002DE9F04F5E4D87B04FF001082B68D3F885
:101A840000B0BBF1000F6DD0DB68D3F80090594E65
:101A9400FFF7EAFBFFF7F0FB3368984282463746CC
:101AA40062D2FFF7B1FF0124C6F800A0524E002C09
:101AB40077D1BBF1000F59D0D14570D8FFF788FC1E
:101AC4002B68DB68D3F80CB00BF10400FEF7C8FCFC
:101AD400DBF81C30012B0FD1DBF818104B465246B3
:101AE40049445846FFF71AFF30B1009423464A464A
:101AF40021465846FFF766FFDBF8243058469847DE
:101B0400002202A93068FFF7B5F80028B6D0029B7E
:101B1400002B03DA05990498039B9847029B002B3A
:101B2400EEDB049C636913B1201DFEF799FCFFF7FB
:101B3400A3FB3B689842814601D2FFF765FF029BF5
:101B4400C7F80090092BDBD808FA03F313F4047ADE
:101B540044D113F0C70F27D19B06D1D52046FEF7F9
:101B64004DFCCDE7D94692E700249DE7234B1B6843
:101B74001A68B2FA82F25209A9EB0A013068FFF737
:101B840097F9FFF725FC0028BAD11D4B4FF080527E
:101B94005A6040BFBFF34F8FBFF36F8FB0E7224649
:101BA400EAE7FFF715FCABE7A169039B4A46194432
:101BB4002046FFF7B3FE0028A2D0636A2046984768
:101BC400E369012B9CD1A2690399CDF800A00A44D2
:101BD400534651462046FFF7F5FE91E70399A1616C
:101BE4004B464A4649442046FFF798FE88E700BF23
:101BF40004110020341100203811002008110020A5
:101C040000ED00E02DE9FF412B4C2C4EA0460025B1
:101C1400082101AA0DEB0100019500F0CFFE002878
:101C24003DD0692000F0E6F9019B002BF0D1226839
:101C340033689A4207D9236813B1652000F0DAF9B2
:101C4400D8F8003033601E4D1E4F2A683B689A4214
:101C540006D92B6813B1672000F0CCF92B683B60E0
:101C6400194D1A4F2A683B689A4207D92B68192BD9
:101C740002D9662000F0BEF92B683B60144D154F65
:101C84002A683B689A4206D92B6813B1682000F091
:101C9400B1F92B683B600A20FFF714FCB7E7019BFE
:101CA400082BC1D102A800F089F90028BCD002A8F1
:101CB40000F0CEFCB8E700BF102500205011002032
:101CC4000C2500204C110020042500204411002084
:101CD400082500204811002008B5FFF761FD000C1D
:101CE40008BD38B504460D46FFF75AFD80B240EAF8
:101CF40005412046BDE83840FFF755BD08B5FFF75C
:101D0400B5F8000C08BD38B504460D46FFF7AEF82B
:101D140080B240EA05412046BDE83840FFF7A8B844
:101D240070B5304E86B035680023044603930DBB6E
:101D340041F288332C4A2D490095012000F0DAFD48
:101D440020232B4A2B490095012000F007FE2A4846
:101D540000F0A4FA294B2749186001230093019647
:101D64002B4678222648FFF73DF9336813B905203E
:101D740000F0B8F9022C10D1224D002403AA082146
:101D840004A8039400F01AFEB0B1692000F032F9FF
:101D94002B68002BF2D006B070BD012C09D100F0E5
:101DA4005FFC04A88DF810408DF8114000F050FC41
:101DB400F1E700F055FCEEE7039B082BE8D104A8FB
:101DC40000F0FCF80028E3D09DF81030012B05D179
:101DD4009DF81130012B01D100F042FC04A800F061
:101DE40037FCD5E74011002074110020FA320000BE
:101DF40054110020013300000833000000250020A6
:101E0400091C000014250020FFF7EABC034B1A68E4
:101E140082421ABF1860012000207047FC24002071
:101E2400194B1B68652B2CD00EDC032B25D005DC4D
:101E3400012B1ED0022B1ED000207047042B1ED075
:101E4400052BF9D111487047682B0ED005DC662BA1
:101E540009D0672BF0D10E487047692B07D06A2B45
:101E6400EAD10C4870470C4870470C4870470C483E
:101E740070470C4870470C4870470C4870470C4832
:101E840070470C48704700BF1C2500202335000014
:101E9400AC3300003A34000078330000E033000033
:101EA400093400006C34000098340000C63400008B
:101EB400F134000043330000F0B5EFF31085012343
:101EC40083F310881D4E1E4A37680023BB4227D374
:101ED4003B46B3F5A06F2CD2194A9C0842F8240063
:101EE400181D10444C1E002294F801E000F802E092
:101EF40014F801EFBEF1000F06D00132192AF3D114
:101F0400885C08B1802A12D10E490868904238BF13
:101F14000A60BB4201D12033336085F31088F0BDE1
:101F24009C0852F82440A042D3D02033CEE701329B
:101F3400E6E7054A136801331360EEE7282500201D
:101F44006C2600200425002010250020F0B5EFF3B6
:101F54001087012383F31088154D164E2B68002437
:101F6400AE469C420DD3B3F5A07F1CD29A08114C07
:101F740044F822000132083344F82210CEF800302D
:101F84000EE0A20856F82250A84201D00834E8E72F
:101F9400B4F5A07F07D246F82200013246F8221099
:101FA40087F31088F0BD044A136801331360F7E720
:101FB400242500202C2500200C25002002784378BD
:101FC400817813440B44C178194403791944437943
:101FD4000B44DB43C1799BB2B1EB132F08D1817958
:101FE400DBB2994204D1012A8CBF00200120704742
:101FF40000207047034B1A6812B9186000F05EB8ED
:10200400704700BF1C250020F0B5002293B08E4617
:102014001EF802300BB1342A3FD100280CBF002136
:10202400012102F104030CBF4FF0900C4FF0910C0E
:102034008F0001EBA304EFF31086012383F31088D0
:102044001B4B1B682BB31B4B1D6801351D601A4BC2
:10205400ADF80650A11C1B6802934CEA04348900B5
:10206400ADF8044000B103900023934217D1C7F1A7
:102074003C02934205DA12AA13443B44002203F8BB
:102084003C2C002201A800F0B3FC10B16A20FFF739
:10209400B1FF86F3108813B0F0BD0132B8E7F81829
:1020A40001AC20441EF8034004720133DDE700BF95
:1020B4001425002020250020041000E008B5074B5B
:1020C4001B684BB1FFF7ACFE014628B1044B1868FE
:1020D400BDE80840FFF798BF08BD00BF14250020E5
:1020E40000250020084B10B51C6864B91860FFF780
:1020F400E5FF064B0649186800F08EF82046BDE857
:10210400104000F0E5B910BD1C250020002500207A
:102114001F3300002DE9F04393B0B1F5805F1B9F9E
:1021240005D30120FFF7DEFF13B0BDE8F0831C1DCB
:10213400042594FBF5F402B1013004440F2C4FEA5A
:10214400800509DD304B0F3C1E68A400B44288BFF3
:102154001C60C5F13C030F24EFF310884FF0010E0F
:102164008EF31088DFF8A8E0DEF800E0BEF1000F7F
:102174002DD0DFF8A090D9F8006041EA043106F1CF
:10218400010EADF804102149C9F800E004F1020C75
:102194000968ADF806E04FEA8C0C02910024A042D5
:1021A40018DC0022934227DCC5F13C02934205DA95
:1021B40012AA15442B44002203F83C2C0022614649
:1021C40001A800F015FC10B16A20FFF713FF88F393
:1021D4001088A9E71AB114B903920134DFE739680A
:1021E40001F1040EC7F800E0D1F800E001A901EB09
:1021F4008401C1F808E0F0E7A91801A801441A987D
:10220400805C08720132CDE708250020041000E04C
:1022140014250020202500200EB43FB5079C02465B
:1022240000200346E15C39B904AD08A945F8041D52
:102234007AB900F190010EE0332BF5DC252906D1A3
:10224400E118497811B1252918BF01300133013350
:10225400E8E700F191018DE8300089B2FFF75AFFF9
:1022640004B0BDE8304003B070470CB430B585B05D
:102274000023089CE25C0AB1342B0DD104AA09ADF9
:1022840042F8045D009401920022FFF743FF05B079
:10229400BDE8304002B070470133EBE710B50146AA
:1022A4000446FFF709FE2346224603210120FFF7D7
:1022B400DCFF204610BD0000B0F5805F13B504D3E9
:1022C4000120FFF70FFF02B010BDEFF310840123CC
:1022D40083F310880C4B1B689BB10C4AADF80000CB
:1022E400136801331360ADF80230094B00221B68F8
:1022F40001930821684600F07BFB10B16A20FFF7C8
:1023040079FE84F31088DEE71425002020250020C0
:10231400041000E0B0F5805F1FB504D30120FFF77F
:10232400E1FE04B010BDEFF31084012383F31088A1
:102334000E4B1B68B3B10E4A136801331360ADF83A
:1023440006300C4B40F480501B68ADF80400039138
:1023540000220C2101A8029300F04AFB10B16A206C
:10236400FFF748FE84F31088DBE700BF1425002044
:1023740020250020041000E030B5B0F5805F85B062
:1023840004D30120FFF7AEFE05B030BDEFF3108596
:10239400012383F310880F4B1B68BBB10E4C2368D9
:1023A40001332360ADF802300C4B40F400501B683D
:1023B400ADF80000029103921021002268460193B7
:1023C40000F016FB10B16A20FFF714FE85F31088A5
:1023D400DAE700BF1425002020250020041000E0C7
:1023E40070B5B0F5805F86B004D30120FFF77AFEA4
:1023F40006B070BDEFF31086012484F310880F4CEF
:102404002468C4B10E4D2C6840F440500134ADF83A
:1024140004000C482C60006802900391049214217B
:10242400002201A8ADF80640059300F0E1FA10B1CE
:102434006A20FFF7DFFD86F31088D9E71425002012
:1024440020250020041000E00EB470B593B0BDF850
:102454005C20B2F5805F07D30120FFF743FE13B081
:10246400BDE8704003B07047EFF31084012383F399
:102474001088144B1B68E3B1134D2B6801332B6098
:10248400ADF80630114B42EA00321B68ADF8042067
:10249400811C18AD02938900009502AA002383428F
:1024A4000ADB002201A800F0A3FA10B16A20FFF7AA
:1024B400A1FD84F31088D2E755F8236042F8046F35
:1024C4000133ECE71425002020250020041000E04F
:1024D4002DE9F047544C236883428AB006466BD0FA
:1024E400FFF792FC0546EFF31087012383F310886E
:1024F4000028266008BF0225002E5BD04B4900222D
:102504000A604B49FF200870EFF3108683F31088AC
:102514002368E3B1474B02930423ADF80C3041F632
:10252400A1230821ADF80E302023ADF81430ADF806
:1025340018102823142102A80492ADF81630ADF81F
:102544001A3000F055FA10B16A20FFF753FD86F3F4
:102554001088EFF31089012383F310882368002B7C
:1025640044D189F31088EFF31088012383F3108892
:102574002368002B55D188F310882F4A2F4B1968F4
:102584001368581C10602A460120FFF729FF2C4AC3
:10259400136813B92B4B1B681360012100238DE8CA
:1025A4000A0004204FF4806312680221FFF74CFFF5
:1025B400FFF784FD87F310880AB0BDE8F087F218AE
:1025C4005AF8222048F823200133082BF7D100229F
:1025D4002021404600F00CFA10B16A20FFF70AFDF2
:1025E4000836B6F5A07FBCD00023E8E700260DF13D
:1025F4000808DFF858A0F7E76A20FFF7FBFC083467
:10260400B4F5A07FB7D0A3590293331908215B68AE
:10261400039300220DEB010000F0EAF90028EED04C
:10262400EAE70024084EEEE71425002020250020C8
:10263400040000200046535018250020702B002071
:102644006C2B0020080000202C2500206C26002084
:102654000378012B02D14078FFF73ABF704700009E
:102664000E4B0F4A1A6003F54E434C331A6842F07E
:1026740080721A601B6813B90320FFF733BD094A3F
:10268400136813F0007301D00420F6E706490B60C9
:10269400136843F001031360704700BFB01F00E0EC
:1026A40055CEACC5001000E0041000E00369C16819
:1026B4008B429DBF8268D21802F1FF3203F1FF33CF
:1026C40094BF501A581A70472DE9F041C7688668BC
:1026D400F61B9642044688461546406806D9384497
:1026E40000F07EFD3D44E560BDE8F08132463844AB
:1026F400AD1B00F075FD2A4608EB0601606800F08A
:102704006FFDF0E72DE9F843C5680646894617468C
:102714004FF000083469B3687068A54228BFE41814
:10272400013C621B5C1BBC4228BF3C46944228BF50
:10273400144649462844224600F052FDB368254415
:102744009D4208BF00253F1BA044A144F560E1D190
:102754004046BDE8F883000010B5104C104AA26151
:102764000323236163610F4BE361226640230E4A16
:102774002362626600231022A3626362E36223671A
:10278400E3666367A2660949E01D00F087FD084916
:10279400204600F083FD2023A37110BD742B00207C
:1027A400543500002C2C00201C2C00205D3500002A
:1027B400613500002DE9F84F1F4B16461A78824602
:1027C400894698460AB9FFF7C7FF182707FB0A8707
:1027D4003D6FD7F86CB05D452BD9BC6E796E641B28
:1027E400B44228BF344629442246484600F0F8FC47
:1027F400BB6E254409EB0400361B9D4208BF00252F
:10280400ABEB050B5E4528BF5E464EB1182303FBB8
:102814000A833246596E294400F0E2FC34443544BC
:1028240024B1182303FB0A88C8F870502046BDE879
:10283400F88F48460024E3E7742B002010B50B46BC
:10284400EFF311844FF0200181F311881946FFF74B
:10285400B1FF84F3118810BDF8B5184C182300FBA0
:10286400033503FB00402544C46A012C0F46164679
:1028740011D003D3022C1BD000240AE02846FFF712
:1028840015FFB04205D3324639462846FFF71CFFF0
:1028940034462046F8BD2846FFF708FF86423446F2
:1028A40028BF0446224639462846FFF70DFFF0E7C5
:1028B4002846BDE8F840FFF725BF00BF742B002071
:1028C400F8B50B4B1B7805460E4617460BB9FFF7B8
:1028D40043FFEFF311844FF0200181F311883A464E
:1028E40031462846FFF7B8FF84F31188F8BD00BFCE
:1028F400742B00202DE9F047174C984623780646A0
:10290400894692460BB9FFF727FF2369B3421FD9C3
:10291400EFF311874FF0200181F3118876B118216C
:1029240006FB0115631901FB0642C3F804A044F831
:1029340005900023C2F8208093625362182000FBA4
:102944000644089BE36287F311880020BDE8F08702
:102954004FF0FF30BDE8F087742B00202DE9F843D9
:10296400154D1F462B780446894690460BB9FFF750
:10297400F3FE6B69A3421BD9EFF311864FF02001DC
:1029840081F3118854B1182101FB04510023C1F8CB
:102994006090C1F864808F660B67CB66182000FBDB
:1029A4000454089B636786F311880020BDE8F8830C
:1029B4004FF0FF30BDE8F883742B002038B50B4B83
:1029C4001546D3F88420D3F888309A420C460BD0AD
:1029D4000A4601460120FFF731FF05B12860201A9D
:1029E40018BF4FF0FF3038BD002038BD742B0020D5
:1029F40038B515460C460A4601460120FFF760FF2C
:102A040005B12860201A18BF4FF0FF3038BD1FB53C
:102A14000021039001AA44F201000191029100F007
:102A240003F805B05DF804FB72B6094B1B68DB07BD
:102A340000D500BEBFF34F8F0649074BCA6802F4A6
:102A4400E0621343CB60BFF34F8F00BFFDE700BFCD
:102A5400F0ED00E000ED00E00400FA0572B6024A71
:102A640013680133136070476C2C0020034A136809
:102A7400013B136003B962B6704700BF6C2C0020A1
:102A8400FFF7ECBFFFF7F2BF38B5084C04F10803B9
:102A94000546002818BF1C4623682BB11A6822601B
:102AA4005B6828469847F7E738BD00BF782C0020BC
:102AB40020B9054B01225A70FFF7E6BF012802D165
:102AC400014A9070F8E77047702C002038B5094C23
:102AD40023786BB908486360A3602361E36000F066
:102AE40041F8054600F04CF801232370284638BD10
:102AF4008525FBE7702C0020B52A000038B5134C5F
:102B0400A378054603F0FF0073B115B16B6801208B
:102B140098470020FFF7B4FFE3680133E360002027
:102B2400BDE83840FFF7AEBFFFF7AAFF25B1226921
:102B340013463BB92A602561E368002BECD100F011
:102B440033F8E9E79D42F7D01B68F2E7702C0020C8
:102B540000F180400023036082B003680193019B6D
:102B640002B07047054A13792BB901211060117125
:102B74005371184670478520704700BF842C00208D
:102B8400084B1A68D20706D4E02283F800230122F6
:102B9400C3F880211A604FF080430122C3F818253E
:102BA400704700BF00E100E038B54FF48270FFF7D2
:102BB400CFFF4FF080430222C3F804230A4AD068AF
:102BC40040F08073D360094B1C6844F00101196024
:102BD4005D685968491BB1F50A5FFAD31C60044B60
:102BE400D06001221A6038BDF0ED00E0001000E072
:102BF40008000040124B1B6810B573B14FF480708D
:102C0400FFF7A6FF4FF080430122C3F808230D4BC2
:102C1400587910B95A711B6898470B4B1B6873B1EC
:102C24004FF48270FFF794FF4FF080430222C3F801
:102C34000823044B01201B68BDE81040184710BD51
:102C440000010040842C00200401004000F1804079
:102C540000F5C040002382B0036003680193019B28
:102C640002B07047800000F1A040D0F8003723F490
:102C74004033C0F80037D0F8003743EA0141C0F8C8
:102C8400001770472DE9FF4700245A4A5A4E5B4DFE
:102C940001940121A2F5C04052F8043B012B80B2FB
:102CA40006D1D6F804330B4202D0FFF7CFFF0C4312
:102CB400AA424FEA4101EDD1514B1B68012B0AD1C5
:102CC4004FF4BE70FFF7C2FF4FF0A04344F000443E
:102CD400D3F81035019314F0FF0F38D1002C80F293
:102CE400858000230293DFF81C914FF0FF33039398
:102CF40001260024A0464FF0A04709EB080393F9EE
:102D04005020531C61D0D2B222F0C005E90804A8B7
:102D1400084402F0070310F804EC06FA03F31EEA71
:102D2400030F52D009EB050E92099EF930E059F8D1
:102D34002EA0BAF1000F26D1032A46D10DF1080CBA
:102D44001CF801E04EEA030E0CF801E01DE02D4FE3
:102D540001260025344210D0AB0003F1804303F573
:102D6400C043D3F81005D3F8101557F8253023B114
:102D7400C1F30141C0F3042098470135082D4FEAFF
:102D84004606E7D1AAE7032AD8D005F5E07110F882
:102D94000C0C57F821101842C1F3014105D0022947
:102DA40013D1032A0BD1114604E003290DD1032AC0
:102DB40005D102212846FFF755FF0134E4B2BAF1E8
:102DC400000F02D011462846D04708F10108B8F197
:102DD400040F92D154B14FF0A043019AD3F81035A7
:102DE400934203D00193029B039382E704B0BDE8AE
:102DF400F08700BF00610040006000402061004097
:102E04007C6100408C2C00200120FDF78DBA08B5B0
:102E14000020FDF789FAC820FEF754FBF8E700000C
:102E240038B505460448FFF739FA2A6803490446C9
:102E3400FFF7F2F9204638BD683500006E35000012
:102E440038B50A4C236800251D702068FFF7E8FF99
:102E54004FF4FA70FEF736FB2268137801331370CF
:102E640023680A2B88BF1D7038BD00BFF02C0020DA
:102E740073B5FFF72BFE08B1FFF7C9FD0120FDF77D
:102E840065FA0120FEF74CFF0225164B01934FF41F
:102E940082720023144900951448FEF7A3F8144BDA
:102EA400009301224FF47A7100231248FEF770FD5B
:102EB400114B06461860FEF7DFF90024024623464C
:102EC400012100943046FEF77DFD0C4B01934FF435
:102ED400827223460A4900950A48FEF783F8FEF7F2
:102EE40093F9FEE7E82C00207E350000132E000045
:102EF4000D2E000083350000EC2C0020F42C002063
:102F040088350000452E0000094B1B78062B0CD198
:102F1400084B1B681A0708D1074B186800F0F0002B
:102F2400A0F130035842584170470020704700BF59
:102F3400E00F00F0E40F00F0E80F00F00C4B1B78FA
:102F4400062B10D10B4B1B681A070CD10A4B1868BF
:102F540000F0F003302B08D000F0E000A0F14003B3
:102F6400584258417047002070470120704700BF05
:102F7400E00F00F0E40F00F0E80F00F008B5FFF7F1
:102F8400DDFF28B17F4B804A1B68C3F30423136021
:102F9400FFF7BAFF10B17D4B7D4A1A60FFF7CEFFF1
:102FA40028B17C4B7C4A1B68C3F342331360FFF7A0
:102FB400ABFF20B1794AD36823F08073D360FFF765
:102FC400BDFF40B14FF080430022C3F80C21C3F889
:102FD4001021C3F83825FFF797FF10B1704B032277
:102FE4001A60FFF791FF40B16E4B05221A6001226F
:102FF4009A6700229A603F225A606B4B1B78062B1B
:1030040009D16A4B1B68190705D1694B1B6803F08A
:10301400F003502B67D0FFF791FF28B1654B664A48
:103024001B6803F04F031360FFF788FF48B14FF0AC
:103034008043D3F80024D20744BF6FF00102C3F8E1
:1030440000245E4B1B68062B04D15D4B1B68062BCA
:1030540000F091805B4AD2F8883043F47003C2F8E0
:103064008830BFF34F8FBFF36F8F4FF01023D3F827
:103074000022002A03DBD3F80432002B2FDA524B50
:103084000122C3F80425D3F80024002AFBD04FF012
:1030940010221521C2F80012D3F80024002AFBD014
:1030A4004FF010231522C3F80422474B1A46D3F8D5
:1030B40000140029FBD00021C3F80415D2F8003411
:1030C400002BFBD0BFF34F8F3E49404BCA6802F43C
:1030D400E0621343CB60BFF34F8F00BFFDE73C4B6F
:1030E4003C4A1A6008BD4FF080523B4BD2F804149E
:1030F400C3F82015D2F80814C3F82415D2F80C1418
:10310400C3F82815D2F81014C3F82C15D2F81414E7
:10311400C3F83015D2F81814C3F83415D2F81C14B7
:10312400C3F84015D2F82014C3F84415D2F8241477
:10313400C3F84815D2F82814C3F84C15D2F82C1447
:10314400C3F85015D2F83014C3F85415D2F8341417
:10315400C3F86015D2F83814C3F86415D2F83C14D7
:10316400C3F86815D2F84014C3F86C15D2F8442497
:10317400C3F870254FE7194A136843F4806313605A
:1031840068E700BF240300104035014074C00740C5
:103194000DF0ADBA440200103C050040F0ED00E033
:1031A400A005004010560040E00F00F0E40F00F0CE
:1031B400E80F00F058020010E40E00403001001047
:1031C4003401001000ED00E000E001400400FA05C5
:1031D400080000200090D00300C000403C170040CD
:1031E400844640EA010313F0030F18D18446202AD1
:1031F4000BD32DE9F007B1E8F807A0E8F807A2F12E
:103204002002202AF7D2BDE8F007042A07D351F898
:10321400043B40F8043BA2F10402042AF7D2002A3A
:1032240005D011F8013B00F8013B013AF9D16046A1
:10323400704700BF8446002A2DD010F0030F04D03D
:1032440000F8011B013A26D0F7E7C9B241EA01218F
:1032540041EA0141202A12D3A2F120022DE9F00310
:103264000B460C460D460E460F4688468946A0E896
:10327400FA03203AFBD2BDE8F00320320BD0042A33
:1032840005D340F8041B043A05D0042AF9D200F807
:10329400011B013AFBD16046704700BF024610F0A3
:1032A400030F16D111F0030F13D12DE9F0004FF0E5
:1032B40001374FF0803351F8044BA4EB070525EA9E
:1032C40004051D4002D142F8044BF4E7A1F10401C6
:1032D400F0BC11F8013B02F8013B002BF9D1704717
:1032E4001112131449444C4500546D725100546D2D
:1032F400722053766300547A4461746100547A43B3
:1033040074726C005761726E696E67732066726FB7
:103314006D205265636F72646572005265636F72EB
:103324006465722073746F7070656420696E2070B8
:10333400727654726163654572726F722829004512
:10334400786365656465642053594D424F4C5F54FE
:1033540041424C455F534C4F5453202873656520BC
:103364007854726163654765744C61737445727215
:103374006F72290045786365656465642053594D0F
:10338400424F4C5F4D41585F4C454E4754482028AE
:10339400736565207854726163654765744C617325
:1033A400744572726F72290045786365656465645B
:1033B400204F424A4543545F444154415F534C4F6C
:1033C400545320287365652078547261636547659A
:1033D400744C6173744572726F722900537472690C
:1033E4006E6720746F6F206C6F6E6720287365653D
:1033F400207854726163654765744C6173744572D7
:10340400726F7229005452435F53545245414D5FC9
:10341400504F52545F524541445F444154412072DD
:10342400657475726E6564206572726F72202821EE
:103434003D2030292E005452435F53545245414D90
:103444005F504F52545F57524954455F4441544171
:103454002072657475726E6564206572726F722075
:1034640028213D2030292E00496E76616C69642044
:103474006576656E7420636F6465202873656520C6
:103484007854726163654765744C617374457272F4
:103494006F722900457863656564656420495352F9
:1034A400206E657374696E6720287365652078548F
:1034B400726163654765744C6173744572726F72AF
:1034C4002900445754206E6F7420737570706F72A6
:1034D4007465642028736565207854726163654758
:1034E40065744C6173744572726F72290044575449
:1034F4005F435943434E54206E6F7420737570704C
:103504006F727465642028736565207854726163F2
:10351400654765744C6173744572726F7229004318
:103524006F756C64206E6F742063726561746520BE
:10353400547A4374726C20287365652078547261E0
:1035440063654765744C6173744572726F722900C8
:103554005465726D696E616C005254540053454752
:1035640047455200564152203100566172696162EA
:103574006C652031203A202575004C454430004CC0
:0B35840045443100566172202B2B00E3
:0C3590000100FFFFFF0000000090D003CE
:040000030000023DBA
:00000001FF
